:100000000C945C000C9484000C9484000C94840088
:100010000C9484000C9484000C9484000C94840050
:100020000C9484000C9484000C9484000C94840040
:100030000C9484000C9484000C9484000C94840030
:100040000C9472060C9484000C94F3080C948400B5
:100050000C9484000C9484000C9484000C94840010
:100060000C9484000C948400000024272A000025AE
:10007000282B000023262904040404040404040299
:100080000202020202030303030303010204081035
:100090002040800102040810200102040810200002
:1000A0000000070002010000030406000000000039
:1000B000000000004B02CA0411241FBECFEFD4E0A1
:1000C000DEBFCDBF11E0A0E0B1E0E8E3F3E102C0A4
:1000D00005900D92A032B107D9F711E0A0E2B1E08E
:1000E00001C01D92AE3CB107E1F710E0C8EBD0E0D3
:1000F00004C02297FE010E949609C43BD107C9F7AC
:100100000E94C3040C949A090C940000CF92DF92D1
:10011000EF92FF920F931F936C017A018B01FC0108
:1001200020853185442737FD4095542F60E67AEECF
:1001300080E090E00E946509CA01B901A801970119
:100140000E946509F60124833583468357831F91F6
:100150000F91FF90EF90DF90CF90089584E090E0B2
:1001600008950F931F93CF93DF93EC018B018A8542
:100170009B85029719F56130710581F06230710538
:1001800024F46115710541F019C06230710561F008
:100190006330710599F40AC060E001C061E08E85AA
:1001A0000E94E20761E007C061E001C060E08E8567
:1001B0000E94E20760E088890E94E2078A859B85A9
:1001C0000497D1F50130110599F0023011051CF4A6
:1001D000012B41F031C002301105C1F0033011058F
:1001E00059F51AC061E08E850E94E20760E005C003
:1001F00060E08E850E94E20761E088890E94E20744
:1002000061E08A890E94E20760E013C060E08E85A9
:100210000E94E20761E005C061E08E850E94E2076E
:1002200060E088890E94E20760E08A890E94E20714
:1002300061E08C890E94E207DF91CF911F910F91BD
:1002400008950F931F93CF93DF93EC0116161706B3
:1002500024F481E090E09983888377FF02C01982BB
:1002600018828B0177FF46C0109501951F4F42C041
:100270000E94CF062E893F89488D598D621B730BD2
:10028000840B950B2C813D814E815F816217730732
:100290008407950768F30E94CF066E8B7F8B888F4B
:1002A000998F888199812C853D85019761F42F5F15
:1002B0003F4F3D872C87888599852817390771F42A
:1002C0001D861C860BC0232B21F4888599859D876C
:1002D0008C878C859D8501979D878C870150104068
:1002E0008C859D8564E070E00E943009BC01CE01E0
:1002F0000E94B1000115110509F0BACFDF91CF912D
:100300001F910F910895CF92DF92EF92FF920F937A
:100310001F936C01842FF6011586148613821282B6
:1003200011821082168A178A108E118E718760874B
:1003300046875787318B208B138B028BF58AE48A93
:1003400061E00E94C40761E0F60180890E94C40751
:1003500061E0F60182890E94C40761E0F6018489A8
:100360000E94C40784E090E0F601938782871F9182
:100370000F91FF90EF90DF90CF900895CF92DF9292
:10038000EF92FF920F931F936C01842FF601158655
:1003900014861382128211821082168A178A108E96
:1003A000118E7187608746875787318B208B138B1F
:1003B000028BF58AE48A61E00E94C40761E0F601DD
:1003C00080890E94C40761E0F60182890E94C40707
:1003D00061E0F60184890E94C40784E090E0F601A0
:1003E000938782871F910F91FF90EF90DF90CF90BE
:1003F00008950F931F938C01842FF801158614869E
:100400001382128211821082168A178A108E118E20
:100410007187608746875787318B208B61E00E9408
:10042000C40761E0F80180890E94C407F801138ABB
:10043000128A158A148A82E090E0938782871F913E
:100440000F9108950F931F938C01842FF801158647
:1004500014861382128211821082168A178A108ED5
:10046000118E7187608746875787318B208B61E0BB
:100470000E94C40761E0F80180890E94C407F80166
:10048000138A128A158A148A82E090E09387828701
:100490001F910F91089529E030E048E050E068ECAA
:1004A00070E080E291E00E94F901089560E083E04D
:1004B0000E94E207089561E085E00E94E207089546
:1004C00060E083E00E94E207089561E083E00E941B
:1004D000E207089560E086E00E94E207089561E087
:1004E00086E00E94E20708950F931F93CF93DF9356
:1004F0008C01C0E0D0E015C061E085E00E94E20719
:1005000066E970E080E090E00E94DD0660E085E052
:100510000E94E20766E970E080E090E00E94DD065C
:100520002196C017D10744F3DF91CF911F910F910E
:1005300008950F931F93CF93DF938C01C0E0D0E019
:1005400015C061E083E00E94E20766E970E080E0A8
:1005500090E00E94DD0660E083E00E94E20766E929
:1005600070E080E090E00E94DD062196C017D10780
:1005700044F3DF91CF911F910F9108952F923F92F5
:100580004F925F926F927F928F929F92AF92BF92A3
:10059000CF92DF92EF92FF920F931F93CF93DF934F
:1005A0007C018B010E94CF061B012C01380188249D
:1005B00077FC8094982C5701CC24B7FCC094DC2C99
:1005C0001DC0C0E0D0E0BE0183E00E947007C601FC
:1005D000B5010E94DD062196CF3FD105A1F7CFEFEF
:1005E000D0E0BE0183E00E947007C601B5010E9401
:1005F000DD0621978FEFCF3FD80799F70E94CF06EE
:1006000062197309840995096615770588059905A6
:10061000C0F2DF91CF911F910F91FF90EF90DF908B
:10062000CF90BF90AF909F908F907F906F905F9092
:100630004F903F902F90089580E00E945207909332
:100640003D0180933C0120E030E0459714F021E02B
:1006500030E0C901089581E00E94520790933B0168
:1006600080933A0120E030E08436910514F421E0D3
:1006700030E0C90108950F931F93CF93DF938C014E
:1006800044E650E060E070E080E291E00E94860085
:10069000C0E0D0E00DC062E370E080E291E00E9433
:1006A00021016EEC7FEF80E291E00E942101219612
:1006B000C017D10784F3DF91CF911F910F91089557
:1006C0000F931F93AA2797FDA095BA2F00E211E080
:1006D000AC01BD01C8010E94860068EC70E0C80151
:1006E0000E9421011F910F9108950F931F93AA2734
:1006F00097FDA095BA2F00E211E0AC01BD01C80141
:100700000E94860068E37FEFC8010E9421011F91CB
:100710000F91089560E071E080E491E00E94F3049D
:1007200040913C0150913D01662757FD6095762F21
:100730002AE030E080E491E00E9467068091170192
:100740009091180160913E0170913F010197B9F4B9
:100750006F5F7F4F70933F0160933E0183E00E9483
:1007600070070E94560280913E0190913F018A3F9E
:100770009105E1F4109218011092170117C0615011
:10078000704070933F0160933E0185E00E947007C6
:100790000E94600280913E0190913F01892B31F4CB
:1007A00081E090E090931801809317010E942B0341
:1007B000892B09F46AC069E071E080E491E00E944D
:1007C000F30440913A0150913B01662757FD609533
:1007D000762F2AE030E080E491E00E94670668EC22
:1007E00070E080E291E00E94210182E090E00E94AE
:1007F00099020E945B0260E77EEF80E291E00E9436
:10080000210184E090E00E94990260E971E080E2B9
:1008100091E00E9421010E9456020E94650268E355
:100820007FEF80E291E00E94210181E090E00E9450
:10083000990281E090E00E94740281E090E00E94C1
:10084000990281E090E00E94740281E090E00E94B1
:10085000990281E090E00E94740281E090E00E94A1
:10086000990281E090E00E94740281E090E00E9491
:10087000990281E090E00E94740281E090E00E9481
:10088000990281E090E00E9474020E941C03892B6F
:1008900071F160E071E080E491E00E94F304409126
:1008A0003C0150913D01662757FD6095762F2AE067
:1008B00030E080E491E00E9467060E9465020E9499
:1008C0006F028CE090E00E9499020E946A0281E02F
:1008D00090E00E94990281E090E00E94740281E021
:1008E00090E00E94990281E090E00E9474020895D5
:1008F0000F931F9300E411E040E855E260E070E0E0
:10090000C8010E94DE044AE550E060E070E080E249
:1009100091E00E94860061E083E00E94C40761E0EC
:1009200085E00E94C40761E086E00E94C40769E098
:1009300071E0C8010E94F30440913A0150913B01DB
:10094000662757FD6095762F2AE030E0C8010E94A7
:10095000670660E071E0C8010E94F30440913C0129
:1009600050913D01662757FD6095762F2AE030E0D3
:10097000C8010E94670660E171E0C8010E9432056B
:100980001F910F9108950E9415070E9478040E94FC
:100990008A03FDCF8DE191E0909341018093400166
:1009A0000895862F0E94B20808950E94EA080895CB
:1009B0000E94CB0808950E94BA080895CB01BA019D
:1009C0000E9479080895DC01ED91FC910190F0817D
:1009D000E02D09950895DC01ED91FC910190F081E5
:1009E000E02D099508950F931F93CF93DF938C010A
:1009F000EB0109C02196D801ED91FC910190F081A5
:100A0000E02DC801099568816623A1F7DF91CF9198
:100A10001F910F9108950F931F938C01DC01ED91AD
:100A2000FC910190F081E02D6DE00995D801ED91E8
:100A3000FC910190F081E02D6AE0C80109951F91B9
:100A40000F9108950F931F938C01DC01ED91FC91A0
:100A50000190F081E02D0995C8010E940B051F91BE
:100A60000F9108950F931F938C010E94F304C80106
:100A70000E940B051F910F9108950F931F938C01F6
:100A8000DC01ED91FC910190F081E02D0995C80108
:100A90000E940B051F910F9108952F923F924F9244
:100AA0005F926F927F928F929F92AF92BF92CF92FE
:100AB000DF92EF92FF920F931F93DF93CF93CDB707
:100AC000DEB7A0970FB6F894DEBF0FBECDBF1C01F6
:100AD0006A017B01411551056105710549F4DC018D
:100AE000ED91FC910190F081E02D60E3099554C0F7
:100AF000882499245401422E55246624772401E049
:100B000010E00C0F1D1F080D191DC701B601A30130
:100B100092010E944309F80160830894811C911C92
:100B2000A11CB11CC701B601A30192010E94430997
:100B3000C901DA016C017D01C114D104E104F104A1
:100B4000F1F681E0E82EF12CEC0EFD1EE80CF91C0C
:100B50003E010894611C711CD501C4010197A109D3
:100B6000B1096C01C818D90814C0F601EE0DFF1DBB
:100B700060816A3010F4605D01C0695CD101ED9163
:100B8000FC910190F081E02DC10109950894E108E4
:100B9000F1086E147F0449F7A0960FB6F894DEBFF3
:100BA0000FBECDBFCF91DF911F910F91FF90EF90BE
:100BB000DF90CF90BF90AF909F908F907F906F907D
:100BC0005F904F903F902F9008952AE00E944D052E
:100BD00008950F931F938C010E94E505C8010E94A0
:100BE0000B051F910F910895AB0160E070E00E942A
:100BF000E50508950F931F938C01AB0160E070E051
:100C00000E94E505C8010E940B051F910F910895F0
:100C1000EF92FF920F931F93CF93DF93EC017A0132
:100C20008B0177FF0FC0E881F9810190F081E02D01
:100C30006DE2099510950095F094E094E11CF11C8B
:100C4000011D111D2AE0B801A701CE010E944D052A
:100C5000DF91CF911F910F91FF90EF9008950F9327
:100C60001F938C010E940806C8010E940B051F916A
:100C70000F910895AB01662757FD6095762F0E946E
:100C8000080608950F931F938C01AB01662757FD4B
:100C90006095762F0E940806C8010E940B051F91DF
:100CA0000F910895DC012115310541F4ED91FC917E
:100CB0000190F081E02D642F099508952A303105C7
:100CC00019F40E94080608950E944D0508950F9397
:100CD0001F938C010E945206C8010E940B051F91B0
:100CE0000F9108951F920F920FB60F9211242F9318
:100CF0008F939F93AF93BF93809142019091430153
:100D0000A0914401B09145018050904CAF4FBF4F2E
:100D10008093420190934301A0934401B093450115
:100D200027C08091420190914301A0914401B0916C
:100D3000450180589E43A040B0408093420190936B
:100D40004301A0934401B0934501809146019091E5
:100D50004701A0914801B09149010196A11DB11D23
:100D60008093460190934701A0934801B0934901B5
:100D70008091420190914301A0914401B0914501BD
:100D800081589E43A040B04060F6BF91AF919F91C3
:100D90008F912F910F900FBE0F901F9018958FB7C6
:100DA000F8942091460130914701409148015091BB
:100DB00049018FBFB901CA010895EF92FF920F93C5
:100DC0001F937B018C018FB7F8944091460150919D
:100DD000470160914801709149018FBF2FB7F89486
:100DE0008091460190914701A0914801B09149013D
:100DF0002FBF841B950BA60BB70B8E159F05A00765
:100E0000B10760F31F910F91FF90EF900895019744
:100E100059F0FC01EE0FFF1FEE0FFF1F32978FB747
:100E2000F8943197F1F78FBF0895789484B5826074
:100E300084BD84B5816084BD85B5826085BD85B57E
:100E4000816085BDEEE6F0E0808181608083E1E82D
:100E5000F0E0808182608083808181608083E0E82F
:100E6000F0E0808181608083E1EBF0E0808184604C
:100E70008083E0EBF0E0808181608083EAE7F0E04E
:100E800080818460808380818260808380818160B2
:100E900080838081806880831092C1000895809350
:100EA0001F0108958F7090911F019295990F990FCE
:100EB000907C982B90937C0080917A008064809342
:100EC0007A0080917A0086FDFCCF209178004091D5
:100ED0007900942F80E030E0282B392BC901089548
:100EE0001F93CF93DF93182FEB0161E00E94C4079B
:100EF000E12FF0E0E156FF4F8491833051F480916F
:100F00008000806880938000D0938900C09388001F
:100F100037C0843051F480918000806280938000DB
:100F2000D0938B00C0938A002BC0813029F484B504
:100F3000806884BDC7BD24C0823029F484B5806236
:100F400084BDC8BD1DC0863041F48091B00080686A
:100F50008093B000C093B30013C0873041F48091F8
:100F6000B00080628093B000C093B40009C0C03864
:100F7000D10514F460E001C061E0812F0E94E20716
:100F8000DF91CF911F910895282F30E0C901855737
:100F90009F4FFC01949129583F4FF9018491882378
:100FA00081F0E82FF0E0E859FF4FE491F0E066238C
:100FB00029F4808190958923808308958081892BED
:100FC00080830895482F50E0CA0181569F4FFC014D
:100FD0002491CA0185579F4FFC01949149585F4F56
:100FE000FA0134913323C1F1222331F1233021F46A
:100FF000809180008F7705C0243031F4809180008B
:101000008F7D8093800018C0213019F484B58F77CC
:1010100004C0223021F484B58F7D84BD0DC02630FC
:1010200021F48091B0008F7705C0273029F480919A
:10103000B0008F7D8093B000E32FF0E0E359FF4FC5
:10104000E491F0E0662329F48081909589238083E0
:1010500008958081892B80830895482F50E0CA012C
:1010600081569F4FFC012491CA0185579F4FFC0177
:10107000949149585F4FFA013491332319F420E0D9
:1010800030E035C0222331F1233021F480918000FB
:101090008F7705C0243031F4809180008F7D80935C
:1010A000800018C0213019F484B58F7704C0223035
:1010B00021F484B58F7D84BD0DC0263021F480914C
:1010C000B0008F7705C0273029F48091B0008F7D64
:1010D0008093B000E32FF0E0EE58FF4FE491F0E092
:1010E000808120E030E0892311F021E030E0C90167
:1010F0000895EF92FF920F931F937B018C0122E0E2
:1011000030E040E050E00E946509205C3D4B404FDC
:101110005F4FCA01B901A80197010E946509C90181
:10112000DA010197A109B109292F3A2F4B2F552731
:1011300047FD5A950196A11DB11D2093C500815010
:101140008093C400E1ECF0E0808180618083808145
:10115000886080838081806880831F910F91FF90D9
:10116000EF900895982F8091C00085FFFCCF909359
:10117000C600089580914A0190914B0180589F4F7D
:1011800020914C0130914D01821B930B60E870E07F
:101190000E943009089540914C0150914D01809179
:1011A0004A0190914B018417950719F42FEF3FEFF7
:1011B0000FC0FA01E25BFE4F2081CA01019660E890
:1011C00070E00E94300990934D0180934C0130E013
:1011D000C901089580914C0190914D0190934B016C
:1011E00080934A0108951F920F920FB60F92112417
:1011F0002F933F934F935F936F937F938F939F931F
:10120000AF93BF93EF93FF934091C600E0914A01E3
:10121000F0914B01CF01019660E870E00E94300927
:101220009C0180914C0190914D012817390739F0AC
:10123000E25BFE4F408330934B0120934A01FF91C4
:10124000EF91BF91AF919F918F917F916F915F913E
:101250004F913F912F910F900FBE0F901F901895B7
:1012600097FB092E07260AD077FD04D049D006D077
:1012700000201AF4709561957F4F0895F6F79095C8
:1012800081959F4F0895A1E21A2EAA1BBB1BFD0159
:101290000DC0AA1FBB1FEE1FFF1FA217B307E40755
:1012A000F50720F0A21BB30BE40BF50B661F771FAD
:1012B000881F991F1A9469F760957095809590958D
:1012C0009B01AC01BD01CF01089597FB092E0526B6
:1012D0000ED057FD04D0D7DF0AD0001C38F450954B
:1012E0004095309521953F4F4F4F5F4F0895F6F74A
:1012F00090958095709561957F4F8F4F9F4F089582
:10130000AA1BBB1B51E107C0AA1FBB1FA617B7072B
:1013100010F0A61BB70B881F991F5A95A9F7809547
:101320009095BC01CD010895EE0FFF1F0590F4913B
:08133000E02D0994F894FFCFB1
:101338005049455A4F203D20004C4452203D200042
:1013480052656164792100010000000000D10401A8
:00000001FF
